:020000040000FA
:04000000D3EF09F041
:1010A200C58AC5881200C58070EC08F01200C5849C
:1010B20070EC08F01200C58670EC08F01200C582D0
:1010C20070EC08F01200376E37C0C9FF70EC08F000
:1010D20012005CEC08F051EC08F0C95012009EA618
:1010E20075EF08F077EF08F070EF08F09E961200A7
:1010F2002E0E3D6E000E3E6EC00E3F6E64EC0AF088
:1011020012000F0EC16E1E0E936EF19E8150E00909
:10111200816E120094869488280EC66E310EC86EB7
:10112200C79CC78E9E96A1961200516E000E376E16
:1011320050504FEC09F0010E376E51504FEC09F050
:101142001200376E9EA8A8EF08F0AAEF08F0A3EFEE
:1011520008F09E9837C0ADFF1200ABEC0BF082ECAA
:1011620008F0D7EC08F08BEC08F0AFEC09F0E7ECF4
:1011720008F01200F92FF62FFC2FE72FEA2FED2FA0
:10118200F02FF32FE42FCD2E9E2FF82E8B2F406EB3
:1011920054EC08F0D00E64EC08F0405064EC08F017
:1011A2003F5064EC08F058EC08F01200C08EC09A70
:1011B200C088C096C090C082C094C292C19AC198A1
:1011C200000EC46E000EC36EC2801200948E949CF8
:1011D200AC9CAC8AAC98AC96AC84AB8EAB9CAB8826
:1011E200B896810EAF6E9E989E9A120037503902C1
:1011F200F3CF3BF0F4CF3CF037503A02F3503C26A9
:1012020038503902F3503C263BC037F03CC038F02E
:101212001200386E54EC08F0D00E64EC08F038502E
:1012220064EC08F060EC08F0D10E64EC08F06AECB3
:1012320008F0396E58EC08F039501200386E54EC50
:1012420008F0A00E64EC08F0385064EC08F060EC92
:1012520008F0A10E64EC08F06AEC08F0396E58EC64
:1012620008F03950120040EF09F038C0F6FF39C0DB
:10127200F7FF0800F550A2EC08F0384A392A38C0C6
:10128200F6FF39C0F7FF0800F5500009D8A44CEF6B
:1012920009F04EEF09F036EF09F01200386E37B060
:1012A20055EF09F058EF09F0828259EF09F0829266
:1012B20038C083FF82848294958E82808292828457
:1012C200829483BE67EF09F069EF09F060EF09F0DD
:1012D2008290959E1200536E54EC08F0A00E64ECBE
:1012E20008F0535064EC08F0505064EC08F058ECED
:1012F20008F00B0E526EB80E516E5106D8A052066F
:10130200512806E15228D8A489EF09F08BEF09F0A1
:101312007EEF09F012003D6E3DC039F0D8903936AB
:10132200D8903936C250C30B3910C26EC282C2B2D3
:101332009DEF09F09FEF09F098EF09F0C350C4CF79
:1013420039F03A6A39C03AF0396A39103B6E3A508C
:101352003C6E3BC037F03CC038F01200000E0AEC85
:1013620009F0416E415080093F6E000EC8EC08F052
:10137200020E0AEC09F0416E415040093F6E020E26
:10138200C8EC08F0930E3F6E070EC8EC08F0000E92
:101392000AEC09F0416E41507F0B3F6E000EC8EC23
:1013A20008F01200760EF66E110EF76E000EF86E51
:1013B20000EE60F010EE1AF00900F5CFEEFFE550F6
:1013C200E150FAE1000EF66E300EF76E000EF86E86
:1013D2000900F5CF5BF001EE00F0960EEE6AE8062A
:1013E200FDE100EE01F0360EEE6AE806FDE1000EC8
:1013F200F86E000164EF10F0000E556E000E546E90
:101402000AEF0AF0FF0E506E54506CEC09F0544A89
:10141200552A1A50545C1B505558D8A013EF0AF0A5
:1014220015EF0AF003EF0AF0000E1B6E000E1A6EA3
:10143200000E1F6E000E1E6E000E196E000E186E4C
:10144200000E236E010E226E000E176E000E166E37
:10145200000E376E010E4FEC09F01200000E3F6EC7
:10146200000E406E000E416E000E426E37A03CEF41
:101472000AF03EEF0AF046EF0AF03B503F263C509E
:1014820040223D5041223E504222D8903B363C36CB
:101492003D363E36D8903A323932383237323750CA
:1014A200381039103A10D8A459EF0AF05BEF0AF05D
:1014B20037EF0AF03FC037F040C038F041C039F092
:1014C20042C03AF01200000E376E3F504FEC09F066
:1014D20081EF0AF0010E376E3DC0F6FF3EC0F7FF06
:1014E200F86A050EF76403D00800F55005D0F6CF70
:1014F200E9FFF7CFEAFFEF504FEC09F03D4A3E2AF1
:101502003DC0F6FF3EC0F7FFF86A050EF76403D050
:101512000800F55005D0F6CFE9FFF7CFEAFFEF500C
:101522000009D8A497EF0AF099EF0AF06BEF0AF0DE
:101532001200376E3704D8A4A1EF0AF0A3EF0AF025
:10154200C7EF0AF01FEC0DF0286E2828D8B4ACEFD4
:101552000AF0AEEF0AF0BBEF0AF05B50D8B4B4EF7A
:101562000AF0B6EF0AF0BBEF0AF0000E5B6E2850ED
:10157200D4EF0AF02828D8A4C1EF0AF0C3EF0AF08A
:10158200D3EF0AF0010E5B6ED3EF0AF03750D8A406
:10159200CDEF0AF0CFEF0AF0D3EF0AF01FEC0DF017
:1015A200D4EF0AF0FF0E1200020E0AEC09F0096EE7
:1015B200010E0AEC09F00A6E000E0AEC09F00B6E3D
:1015C20009ACE6EF0AF0E8EF0AF0F3EF0AF00938A7
:1015D2000F0B010B300F2E6E09500F0B300F2F6EB9
:1015E200FCEF0AF009380F0B030B300F2E6E095077
:1015F2000F0B300F2F6E3A0E306E0A380F0B0F0B97
:10160200300F316E0A500F0B300F326E3A0E336EBE
:101612000B380F0B0F0B300F346E0B500F0B300FBC
:10162200356E000E366E12003B503C103D103E10DF
:10163200D8B41EEF0BF020EF0BF050EF0BF0010EC1
:101642003F6E2AEF0BF0D8903B363C363D363E36A5
:101652003F2A3EAE2FEF0BF031EF0BF024EF0BF0F1
:101662003B50375C3C5038583D5039583E503A5800
:10167200D8A03EEF0BF040EF0BF048EF0BF03B50E1
:10168200375E3C50385A3D50395A3E503A5AD890FB
:101692003E323D323C323B323F2E31EF0BF037C00F
:1016A20037F038C038F039C039F03AC03AF0120099
:1016B200000E4B6E000E4C6E000E4D6E000E4E6E06
:1016C2004750481049104A10D8B46AEF0BF06CEF3B
:1016D2000BF0A2EF0BF0010E4F6E76EF0BF0D890ED
:1016E2004736483649364A364F2A4AAE7BEF0BF028
:1016F2007DEF0BF070EF0BF0D8904B364C364D3639
:101702004E364750435C48504458495045584A5019
:101712004658D8A08FEF0BF091EF0BF09AEF0BF039
:101722004750435E4850445A4950455A4A50465AD7
:101732004B80D8904A324932483247324F2E7DEFA1
:101742000BF04BC043F04CC044F04DC045F04EC0CE
:1017520046F01200000E956E9450F80B946E829033
:10176200C30E396ECD0EE82EFED7392EFCD700F00F
:10177200000E376E330E4FEC09F01B0E396E9E0EC3
:10178200E82EFED7392EFCD700D0000E376E330E6E
:101792004FEC09F0A60EE82EFED700D0000E376EF1
:1017A200330E4FEC09F000D000D000F0000E376E7F
:1017B200020E4FEC09F0A60EE82EFED700D0000E66
:1017C200376E380E4FEC09F0A60EE82EFED700D089
:1017D200000E376E010E4FEC09F0040E396E3E0E0C
:1017E200E82EFED7392EFCD7000E376E0C0E4FECCA
:1017F20009F0A60EE82EFED700D01200000E3C6EB5
:1018020038BE08EF0CF006EF0CF00EEF0CF0376C60
:10181200381ED8B0382A010E3C6E3ABE15EF0CF0D5
:1018220013EF0CF019EF0CF0396C3A1ED8B03A2ACB
:1018320039503A10D8B420EF0CF022EF0CF046EFFA
:101842000CF0010E3B6E2AEF0CF0D89039363A3686
:101852003B2A3AAE2FEF0CF031EF0CF026EF0CF0F2
:101862003950375C3A503858D8A03AEF0CF03CEF78
:101872000CF040EF0CF03950375E3A50385AD8909D
:101882003A3239323B2E31EF0CF03C50D8B44CEFA7
:101892000CF04EEF0CF052EF0CF0376C381ED8B053
:1018A200382A37C037F038C038F01200000E3C6ECC
:1018B2003ABE60EF0CF05EEF0CF066EF0CF0396CA4
:1018C2003A1ED8B03A2A010E3C6E38BE6DEF0CF0CB
:1018D2006BEF0CF073EF0CF0376C381ED8B0382A6F
:1018E200010E3C1A000E3E6E000E3D6E39503A104B
:1018F200D8B47EEF0CF080EF0CF0A8EF0CF0010EE4
:101902003B6E88EF0CF0D89039363A363B2A3AAE25
:101912008DEF0CF08FEF0CF084EF0CF0D8903D3689
:101922003E363950375C3A503858D8A09BEF0CF00D
:101932009DEF0CF0A2EF0CF03950375E3A50385A56
:101942003D80D8903A3239323B2E8FEF0CF03C502A
:10195200D8B4AEEF0CF0B0EF0CF0B4EF0CF03D6C7D
:101962003E1ED8B03E2A3DC037F03EC038F01200CD
:10197200040E8CEC09F037C052F038C053F0546AB0
:10198200556A52C037F053C038F054C039F055C0D0
:101992003AF0630E3B6E000E3C6E000E3D6E000E82
:1019A2003E6E2FEC0AF037C043F038C044F039C025
:1019B20045F03AC046F0FF0E476E030E486E000E29
:1019C200496E000E4A6E59EC0BF043C005F044C05C
:1019D20006F045C007F046C008F0CE0E506E05C0B6
:1019E20043F006C044F007C045F008C046F00A0EB6
:1019F200476E000E486E000E496E000E4A6E59EC9C
:101A02000BF04350300F96EC08F0CF0E506E05C02D
:101A120037F006C038F007C039F008C03AF00A0EB5
:101A22003B6E000E3C6E000E3D6E000E3E6E15ECDF
:101A32000BF03750300F96EC08F01200819A818C2F
:101A4200818E81B227EF0DF029EF0DF02CEF0DF012
:101A5200010EA2EF0DF081B431EF0DF033EF0DF076
:101A620036EF0DF0040EA2EF0DF081B63BEF0DF054
:101A72003DEF0DF040EF0DF0070EA2EF0DF081B833
:101A820045EF0DF047EF0DF04AEF0DF00A0EA2EF11
:101A92000DF0818A819C818E81B252EF0DF054EF5C
:101AA2000DF057EF0DF0020EA2EF0DF081B45CEFD6
:101AB2000DF05EEF0DF061EF0DF0050EA2EF0DF0EF
:101AC20081B666EF0DF068EF0DF06BEF0DF0080ECA
:101AD200A2EF0DF081B870EF0DF072EF0DF075EF1F
:101AE2000DF00B0EA2EF0DF0818A818C819E819EFA
:101AF20081B27EEF0DF080EF0DF083EF0DF0030E5B
:101B0200A2EF0DF081B488EF0DF08AEF0DF08DEFAA
:101B12000DF0060EA2EF0DF081B692EF0DF094EFEC
:101B22000DF097EF0DF0090EA2EF0DF081B89CEFCA
:101B32000DF09EEF0DF0A1EF0DF00C0EA2EF0DF0E7
:101B4200FF0E1200D8902034D96E2134DA6E600E66
:101B5200D926000EDA22DECF3DF0DDCF3EF0CA0EEE
:101B62003F6E64EC0AF022502310D8A4BBEF0DF0B4
:101B7200BDEF0DF02AEF0EF02D28D8B4C3EF0DF013
:101B8200C5EF0DF02AEF0EF02D04D8A4CBEF0DF027
:101B9200CDEF0DF0EFEF0DF0080E20182110D8A4B4
:101BA200D5EF0DF0D7EF0DF0DDEF0DF0000E216E49
:101BB200010E206EEFEF0DF021BEEBEF0DF0215084
:101BC20007E1070E205CD8B0E9EF0DF0EBEF0DF066
:101BD200EFEF0DF0204A212A95EC0FF0020E2D189E
:101BE200D8A4F6EF0DF0F8EF0DF01BEF0EF0080E93
:101BF20020182110D8A400EF0EF002EF0EF008EF2B
:101C02000EF0000E216E010E206E1BEF0EF021BEB3
:101C120014EF0EF0215009E1020E205CD8A014EF5F
:101C22000EF016EF0EF01BEF0EF02006D8A02106E4
:101C320095EC0FF0030E2D18D8A422EF0EF024EF2E
:101C42000EF02AEF0EF0000E216E080E206E95ECBB
:101C52000FF0120016501710D8A432EF0EF034EF26
:101C62000EF040EF0EF0800E506E2A0E96EC08F049
:101C7200C00E506E200E96EC08F053EF0EF01604D4
:101C82001710D8A447EF0EF049EF0EF053EF0EF005
:101C9200800E506E200E96EC08F0C00E506E2A0E8A
:101CA20096EC08F0D8901834D96E1934DA6E720EA8
:101CB200D926000EDA22DECF3DF0DDCF3EF0820ED5
:101CC2003F6E64EC0AF0D8901834D96E1934DA6E8B
:101CD200740ED926000EDA22DECF3DF0DDCF3EF0C3
:101CE200C20E3F6E64EC0AF02D04D8A47BEF0EF016
:101CF2007DEF0EF09EEF0EF016041710D8A484EFBD
:101D02000EF086EF0EF08CEF0EF0000E176E000E46
:101D1200166EC8EF0EF019BE97EF0EF0195008E1DB
:101D22001804D8A097EF0EF099EF0EF0C8EF0EF05E
:101D32001806D8A0190686EF0EF0020E2D18D8A4A8
:101D4200A5EF0EF0A7EF0EF0C8EF0EF01650171029
:101D5200D8A4AEEF0EF0B0EF0EF0B6EF0EF0000E1C
:101D6200176E010E166EC8EF0EF019BEC4EF0EF01C
:101D7200195007E1020E185CD8B0C2EF0EF0C4EFA2
:101D82000EF0C8EF0EF0184A192AB0EF0EF012004A
:101D92001E501F10D8A4D0EF0EF0D2EF0EF0F9EFC4
:101DA2000EF0630E3D6E2F0E3E6E800E3F6E64ECA3
:101DB2000AF04E0E3D6E2F0E3E6EC00E3F6E64EC6C
:101DC2000AF01A0E416E5E0E406E6E0EE82EFED7BF
:101DD200402EFCD7412EFAD700D0000E236E010E02
:101DE200226E000E376E010E4FEC09F01EEF0FF05F
:101DF200240E3D6E2F0E3E6E800E3F6E64EC0AF096
:101E0200390E3D6E2F0E3E6EC00E3F6E64EC0AF030
:101E12001A0E416E5E0E406E6E0EE82EFED7402EFA
:101E2200FCD7412EFAD700D0000E236E010E226E8F
:101E3200000E376E010E4FEC09F00F0E386E2F0EAA
:101E4200396E34EC09F0000E456E000E446E78EFE8
:101E52000FF04450300FA2EC08F0200EA2EC08F074
:101E6200000E436E000E426E52EF0FF044C037F088
:101E720045C038F0000E3A6E0F0E396EF7EC08F0DE
:101E8200000E3724406E010E3820416E425040242D
:101E9200D96E43504120DA6EDF50A2EC08F0424A7C
:101EA200432A44C037F045C038F0000E3A6E0F0E98
:101EB200396EF7EC08F0000E3724406E010E382020
:101EC200416E42504024D96E43504120DA6EDF50B9
:101ED200D8A46EEF0FF070EF0FF037EF0FF0210E76
:101EE200386E2F0E396E34EC09F0444A452A1E50E2
:101EF200445C4550800A406E1F50800A4058D8A06A
:101F020085EF0FF087EF0FF02AEF0FF0000E376E1C
:101F1200010E4FEC09F0000E196E000E186E000E45
:101F2200176E000E166E1200000E576E000E566EE1
:101F3200020E56185710D8B4A1EF0FF0A3EF0FF00E
:101F4200BCEF0FF0050E56185710D8A4ABEF0FF0E8
:101F5200ADEF0FF0AFEF0FF0BCEF0FF02E0E5624E7
:101F6200D96E000E5720DA6EDF50506E1A506CECAC
:101F720009F01A4A1B2A564A572A57BECAEF0FF0CF
:101F8200575009E1080E565CD8A0CAEF0FF0CCEF0B
:101F92000FF099EF0FF0D8902034D96E2134DA6E19
:101FA200600ED926000EDA22DECFF6FFDDCFF7FF74
:101FB2000800F5CF50F01A506CEC09F01A4A1B2AAF
:101FC200D8902034D96E2134DA6E600ED926000EF4
:101FD200DA22DECF54F0DDCF55F0010E5426000E8A
:101FE200552254C0F6FF55C0F7FF0800F5CF50F058
:101FF2001A506CEC09F01A4A1B2A05C043F006C0BD
:1020020044F007C045F008C046F00A0E476E000EC5
:10201200486E000E496E000E4A6E59EC0BF04350AA
:10202200300F506E1A506CEC09F01A4A1B2A05C088
:1020320037F006C038F007C039F008C03AF00A0E8F
:102042003B6E000E3C6E000E3D6E000E3E6E15ECB9
:102052000BF03750300F506E1A506CEC09F01A4AE0
:102062001B2A1B5009E1640E1A5CD8A03BEF10F04A
:102072003DEF10F041EF10F0000E1B6E000E1A6ED5
:102082001FBE4FEF10F01F5007E10A0E1E5CD8B0C2
:102092004DEF10F04FEF10F053EF10F01E4A1F2AD1
:1020A20063EF10F0010E1224376E000E1320386E0B
:1020B200000E3A6E0A0E396EFFEC0BF037C012F0CA
:1020C20038C013F01200AEEC08F0000E236E000EC2
:1020D200226E010E9AEC0AF02D6E22502310D8A423
:1020E20075EF10F077EF10F09BEF10F0D30E3D6E0E
:1020F2002F0E3E6E800E3F6E64EC0AF0A3EC0DF0E4
:10210200B9EC0CF079EC08F0D5EC0AF00B0E2D18B6
:10211200D8A48EEF10F090EF10F06AEF10F0000EDE
:10212200376E010E4FEC09F0000E236E010E226E87
:102132006AEF10F022042310D8A4A2EF10F0A4EF4B
:1021420010F099EF11F02BEC0EF00B0E2D18D8A415
:10215200ADEF10F0AFEF10F07DEF11F01850191045
:10216200D8A4B6EF10F0B8EF10F0D8EF10F0165078
:102172001710D8A4BFEF10F0C1EF10F0D8EF10F095
:10218200000E376E010E4FEC09F0C90E3D6E2E0E99
:102192003E6E800E3F6E64EC0AF0000E236E020E5D
:1021A200226E000E1D6E010E1C6E7DEF11F0185096
:1021B2001910D8A4DFEF10F0E1EF10F0EAEF10F001
:1021C20016041710D8B4E8EF10F0EAEF10F0FCEFA5
:1021D20010F018041910D8A4F1EF10F0F3EF10F07A
:1021E20027EF11F016501710D8A4FAEF10F0FCEFF9
:1021F20010F027EF11F0000E376E010E4FEC09F0D0
:10220200C20E3D6E2F0E3E6E800E3F6E64EC0AF0E3
:10221200B00E3D6E2F0E3E6EC00E3F6E64EC0AF0A5
:102222001A0E5A6E5E0E596E6E0EE82EFED7592E9B
:10223200FCD75A2EFAD700D0000E236E030E226E60
:10224200000E1D6E020E1C6E7DEF11F018041910A7
:10225200D8A42EEF11F030EF11F039EF11F016047F
:102262001710D8B437EF11F039EF11F04CEF11F02D
:10227200020E18181910D8A441EF11F043EF11F013
:102282005BEF11F016501710D8A44AEF11F04CEF83
:1022920011F05BEF11F0000E376E010E4FEC09F0FA
:1022A200000E236E040E226E000E1D6E030E1C6EB7
:1022B2007DEF11F0020E18181910D8A463EF11F077
:1022C20065EF11F07DEF11F016041710D8A46CEF32
:1022D20011F06EEF11F07DEF11F0000E376E010E6E
:1022E2004FEC09F0000E236E050E226E000E1D6EDD
:1022F200040E1C6E7DEF11F00C0E2D18D8A484EF85
:1023020011F086EF11F06AEF10F0000E376E010E39
:102312004FEC09F0000E236E000E226E000E196EB5
:10232200000E186E000E1D6E000E1C6E6AEF10F08D
:10233200020E22182310D8A4A1EF11F0A3EF11F07E
:10234200C6EF11F01C041D10D8A4AAEF11F0ACEFD7
:1023520011F0C6EF11F059EC12F00C0E2D18D8A4A2
:10236200B5EF11F0B7EF11F06AEF10F0000E256E25
:10237200000E246E000E376E010E4FEC09F0000EB7
:10238200236E010E226E93EF11F0030E221823101A
:10239200D8A4CEEF11F0D0EF11F0ECEF11F0020E55
:1023A2001C181D10D8A4D8EF11F0DAEF11F0ECEFE1
:1023B20011F0FDEC09F00C0E2D18D8A4E3EF11F08A
:1023C200E5EF11F06AEF10F0000E376E010E4FECE0
:1023D20009F0C0EF11F0040E22182310D8A4F4EF74
:1023E20011F0F6EF11F004EF12F0030E1C181D109D
:1023F200D8A4FEEF11F000EF12F004EF12F0C9ECD6
:102402000EF0C0EF11F0050E22182310D8A40CEF25
:1024120012F00EEF12F06AEF10F0040E1C181D10ED
:10242200D8A416EF12F018EF12F06AEF10F026504F
:102432002710D8A41FEF12F021EF12F037EF12F09D
:102442002E500A0DF3502F24F00F2B6E31500A0D2F
:10245200F3503224F00F2A6E34500A0DF350352413
:10246200F00F296E000E276E010E266E55EC14F049
:102472000C0E2D18D8A440EF12F042EF12F055EFD7
:1024820012F0000E376E010E4FEC09F0000E236EB3
:10249200010E226E000E1D6E000E1C6E000E276EC7
:1024A200000E266E6AEF10F06AEF10F000EF00F0F7
:1024B2001E501F10D8A460EF12F062EF12F089EFE5
:1024C20012F0630E3D6E2F0E3E6E800E3F6E64EC78
:1024D2000AF0770E3D6E2F0E3E6EC00E3F6E64EC1C
:1024E2000AF01A0E536E5E0E526E6E0EE82EFED774
:1024F200522EFCD7532EFAD700D0000E236E010EB7
:10250200226E000E376E010E4FEC09F000EF14F050
:102512000C500D10D8A490EF12F092EF12F000EFD1
:1025220014F0000E586E000E576EEDEF13F0575078
:102532001224376E58501320386E000E3A6E0A0E6F
:10254200396EFFEC0BF037C055F038C056F055C06D
:1025520037F056C038F0000E3A6E0A0E396EF7ECBC
:1025620008F037C00EF038C00FF057C037F058C02F
:1025720038F0000E3A6E0F0E396EF7EC08F0000ECE
:102582003724D96E010E3820DA6E0E501FEC09F096
:10259200DF6E0E4A0F2A57C037F058C038F0000ECF
:1025A2003A6E0F0E396EF7EC08F0010E3724D96E31
:1025B200010E3820DA6E0E501FEC09F0DF6E0E4A63
:1025C2000F2A57C037F058C038F0000E3A6E0F0E7F
:1025D200396EF7EC08F0020E3724D96E010E38205E
:1025E200DA6E3A0EDF6E57C037F058C038F0000E80
:1025F2003A6E0F0E396EF7EC08F0030E3724D96EDF
:10260200010E3820DA6E0E501FEC09F0DF6E0E4A12
:102612000F2A57C037F058C038F0000E3A6E0F0E2E
:10262200396EF7EC08F0040E3724D96E010E38200B
:10263200DA6E0E501FEC09F0DF6E0E4A0F2A57C0F9
:1026420037F058C038F0000E3A6E0F0E396EF7ECC4
:1026520008F0050E3724D96E010E3820DA6E3A0ED4
:10266200DF6E57C037F058C038F0000E3A6E0F0ECA
:10267200396EF7EC08F0060E3724D96E010E3820B9
:10268200DA6E0E501FEC09F0DF6E0E4A0F2A57C0A9
:1026920037F058C038F0000E3A6E0F0E396EF7EC74
:1026A20008F0070E3724D96E010E3820DA6E0E506C
:1026B2001FEC09F0DF6E0E4A0F2A57C037F058C0E0
:1026C20038F0000E3A6E0F0E396EF7EC08F0080E75
:1026D2003724D96E010E3820DA6E200EDF6E57C015
:1026E20037F058C038F0000E3A6E0F0E396EF7EC24
:1026F20008F0090E3724D96E010E3820DA6E0E501A
:102702001FEC09F0DF6E0E4A0F2A57C037F058C08F
:1027120038F0000E3A6E0F0E396EF7EC08F00A0E22
:102722003724D96E010E3820DA6E0E501FEC09F0F4
:10273200DF6E0E4A0F2A57C037F058C038F0000E2D
:102742003A6E0F0E396EF7EC08F00B0E3724D96E85
:10275200010E3820DA6E200EDF6E57C037F058C0F7
:1027620038F0000E3A6E0F0E396EF7EC08F00C0ED0
:102772003724D96E010E3820DA6E0E501FEC09F0A4
:10278200DF6E0E4A0F2A57C037F058C038F0000EDD
:102792003A6E0F0E396EF7EC08F00D0E3724D96E33
:1027A200010E3820DA6E0E501FEC09F0DF6E0E4A71
:1027B2000F2A57C037F058C038F0000E3A6E0F0E8D
:1027C200396EF7EC08F00E0E3724D96E010E382060
:1027D200DA6EDF6A574A582A1E50575C5850800AF0
:1027E200526E1F50800A5258D8A0FAEF13F0FCEF35
:1027F20013F098EF12F0000E0D6E010E0C6E020E29
:102802002D18D8A407EF14F009EF14F022EF14F0FA
:10281200FF0E1E24526EFF0E1F20536E5250245C78
:102822002550800A546E5350800A5458D8B01CEF79
:1028320014F01EEF14F022EF14F0244A252A3AEF86
:1028420014F02D04D8A428EF14F02AEF14F03AEF74
:1028520014F025BE35EF14F0255008E12404D8A069
:1028620035EF14F037EF14F03AEF14F02406D8A045
:10287200250624C037F025C038F0000E3A6E0F0E40
:10288200396EF7EC08F0000E37243D6E010E382049
:102892003E6EC20E3F6E64EC0AF0C00E506E2450C3
:1028A200300F96EC08F01200E10E3D6E2E0E3E6ED9
:1028B200800E3F6E64EC0AF02C50D8A463EF14F043
:1028C20065EF14F015EF15F001C052F002C053F09D
:1028D20003C054F004C055F0012A000E0222032264
:1028E20004225550541009E1F40E525C010E535863
:1028F200D8B07EEF14F080EF14F0E6EF14F0C00EC3
:10290200506E2BC037F0386A000E3A6E0A0E396EDE
:1029120057EC0CF03750300F96EC08F0C10E506EA9
:102922002BC037F0386A000E3A6E0A0E396EFFEC91
:102932000BF03750300F96EC08F0C20E506E3A0E84
:1029420096EC08F0C30E506E2AC037F0386A000EBB
:102952003A6E0A0E396E57EC0CF03750300F96EC87
:1029620008F0C40E506E2AC037F0386A000E3A6E74
:102972000A0E396EFFEC0BF03750300F96EC08F070
:10298200C50E506E3A0E96EC08F0C60E506E29C077
:1029920037F0386A000E3A6E0A0E396E57EC0CF0B8
:1029A2003750300F96EC08F0C70E506E29C037F042
:1029B200386A000E3A6E0A0E396EFFEC0BF0375091
:1029C200300F96EC08F015EF15F001C052F002C07E
:1029D20053F003C054F004C055F0012A000E022245
:1029E200032204225550541009E1E80E525C030EF2
:1029F2005358D8B0FFEF14F001EF15F00DEF15F0BA
:102A0200C00E506E200E96EC08F0C10E506E200ED5
:102A120096EC08F015EF15F0000E016E000E026E36
:102A2200000E036E000E046E2C04D8A41BEF15F0EA
:102A32001DEF15F0CDEF15F001C052F002C053F0BA
:102A420003C054F004C055F0012A000E02220322F2
:102A520004225550541009E1F40E525C010E5358F1
:102A6200D8B036EF15F038EF15F09EEF15F0C00E26
:102A7200506E2BC037F0386A000E3A6E0A0E396E6D
:102A820057EC0CF03750300F96EC08F0C10E506E38
:102A92002BC037F0386A000E3A6E0A0E396EFFEC20
:102AA2000BF03750300F96EC08F0C20E506E3A0E13
:102AB20096EC08F0C30E506E2AC037F0386A000E4A
:102AC2003A6E0A0E396E57EC0CF03750300F96EC16
:102AD20008F0C40E506E2AC037F0386A000E3A6E03
:102AE2000A0E396EFFEC0BF03750300F96EC08F0FF
:102AF200C50E506E3A0E96EC08F0C60E506E29C006
:102B020037F0386A000E3A6E0A0E396E57EC0CF046
:102B12003750300F96EC08F0C70E506E29C037F0D0
:102B2200386A000E3A6E0A0E396EFFEC0BF037501F
:102B3200300F96EC08F0CDEF15F001C052F002C054
:102B420053F003C054F004C055F0012A000E0222D3
:102B5200032204225550541009E1E80E525C030E80
:102B62005358D8B0B7EF15F0B9EF15F0C5EF15F01F
:102B7200C30E506E200E96EC08F0C40E506E200E5E
:102B820096EC08F0CDEF15F0000E016E000E026E0D
:102B9200000E036E000E046EC50E506E3A0E96ECD9
:102BA20008F0020E2C18D8A4D9EF15F0DBEF15F0BF
:102BB2008BEF16F001C052F002C053F003C054F084
:102BC20004C055F0012A000E0222032204225550AD
:102BD200541009E1F40E525C010E5358D8B0F4EFD0
:102BE20015F0F6EF15F05CEF16F0C00E506E2BC02C
:102BF20037F0386A000E3A6E0A0E396E57EC0CF056
:102C02003750300F96EC08F0C10E506E2BC037F0E3
:102C1200386A000E3A6E0A0E396EFFEC0BF037502E
:102C2200300F96EC08F0C20E506E3A0E96EC08F099
:102C3200C30E506E2AC037F0386A000E3A6E0A0E82
:102C4200396E57EC0CF03750300F96EC08F0C40E8A
:102C5200506E2AC037F0386A000E3A6E0A0E396E8C
:102C6200FFEC0BF03750300F96EC08F0C50E506EAB
:102C72003A0E96EC08F0C60E506E29C037F0386A4C
:102C8200000E3A6E0A0E396E57EC0CF03750300FC8
:102C920096EC08F0C70E506E29C037F0386A000E65
:102CA2003A6E0A0E396EFFEC0BF03750300F96EC8D
:102CB20008F08BEF16F001C052F002C053F003C0CF
:102CC20054F004C055F0012A000E0222032204220D
:102CD2005550541009E1E80E525C030E5358D8B017
:102CE20075EF16F077EF16F083EF16F0C60E506E02
:102CF200200E96EC08F0C70E506E200E96EC08F0EF
:102D02008BEF16F0000E016E000E026E000E036EC7
:102D1200000E046E020E2D18D8A492EF16F094EF56
:102D220016F0A0EF16F02C2A2CC037F0386A000EED
:102D32003A6E030E396EFFEC0BF037502C6E2D04F9
:102D4200D8A4A6EF16F0A8EF16F0F1EF16F02C506B
:102D5200D8A4AEEF16F0B0EF16F0C0EF16F0010EE9
:102D62002B24376E386A000E3822000E3A6E180E87
:102D7200396EFFEC0BF037502B6EF1EF16F02C048E
:102D8200D8A4C6EF16F0C8EF16F0D8EF16F0010E71
:102D92002A24376E386A000E3822000E3A6E3C0E34
:102DA200396EFFEC0BF037502A6EF1EF16F0020E7F
:102DB2002C18D8A4DFEF16F0E1EF16F0F1EF16F0C1
:102DC200010E2924376E386A000E3822000E3A6E40
:102DD2003C0E396EFFEC0BF03750296EF1EF16F016
:102DE2000B0E2D18D8A4F8EF16F0FAEF16F05BEFE1
:102DF20017F0000E276E000E266E2BC037F0386AD1
:102E0200000E3A6E0A0E396EFFEC0BF037C052F02C
:102E120038C053F02BC037F0386A000E3A6E0A0EF3
:102E2200396E57EC0CF03738F00B52103F6E020E31
:102E3200C8EC08F02AC037F0386A000E3A6E0A0E63
:102E4200396EFFEC0BF037C052F038C053F02AC095
:102E520037F0386A000E3A6E0A0E396E57EC0CF0F3
:102E62003738F00B52103F6E010EC8EC08F029C043
:102E720037F0386A000E3A6E0A0E396EFFEC0BF02C
:102E820037C052F038C053F029C037F0386A000E0C
:102E92003A6E0A0E396E57EC0CF03738F00B5210BE
:102EA2003F6E000EC8EC08F0D5EC0AF0000E236E5F
:102EB200000E226E000E196E000E186E000E176EB6
:102EC200000E166E1200002320202056494557207E
:102ED2004C4F472020202020202020202020004866
:102EE200483A4D4D3A5353202020202020202020C4
:102EF200202020202000444F574E4C4F4144204C6C
:102F02004F4720202020202020202020004944203C
:102F12002054494D45202020204556202053500A58
:102F22000D00446F776E6C6F6164696E67202020BC
:102F3200202020202020005468726F756768205579
:102F42004152542020202020202020002020544FB5
:102F520020444F574E4C4F4144203A2820202020F5
:102F6200004E4F204C4F47532E2E20202020202051
:102F720020202020002020544F20444953504C410F
:102F820059203A2820202020005345542054494DEE
:102F9200452020202020202020202000434C454195
:102FA20052204C4F472020202020202020004A750C
:102FB200737420776169742061207365632E2E001B
:102FC200436C656172696E67204C6F67732E2E2E9B
:102FD20000202054494D45202020204556202053D2
:102FE2005000432000473100473200473300473446
:0F2FF20000473500474E004F4E00475200000188
:020000040020DA
:08000000FFFFFFFFFFFFFFFF00
:020000040030CA
:0E000000FF071F1FFF8285FF0FC00FE00F409C
:00000001FF
